{
  "contractName": "faucet",
  "abi": [
    {
      "inputs": [],
      "name": "num",
      "outputs": [
        {
          "internalType": "int256",
          "name": "",
          "type": "int256"
        }
      ],
      "stateMutability": "view",
      "type": "function",
      "constant": true
    },
    {
      "inputs": [],
      "name": "number",
      "outputs": [
        {
          "internalType": "uint256",
          "name": "",
          "type": "uint256"
        }
      ],
      "stateMutability": "view",
      "type": "function",
      "constant": true
    }
  ],
  "bytecode": "0x608060405260176000557fffffffffffffffffffffffffffffffffffffffffffffffffffffffffffffff7b60015534801561003957600080fd5b5061010d806100496000396000f3fe6080604052348015600f57600080fd5b506004361060325760003560e01c80634e70b1dc1460375780638381f58a146051575b600080fd5b603d606b565b60405160489190608e565b60405180910390f35b60576071565b6040516062919060be565b60405180910390f35b60015481565b60005481565b6000819050919050565b6088816077565b82525050565b600060208201905060a160008301846081565b92915050565b6000819050919050565b60b88160a7565b82525050565b600060208201905060d1600083018460b1565b9291505056fea2646970667358221220659399e2ee90d7fdb4d737053963fd21da2d7fa0b03011fbea9685d2e072307664736f6c63430008110033",
  "immutableReferences": {},
  "source": "//SPDX-License-Identifier: MIT\r\npragma solidity >=0.5.0 < 0.9.0;\r\n\r\ncontract faucet{\r\n    uint public number = 23;\r\n    int public num = -133;\r\n\r\n    \r\n}",
  "sourcePath": "C:\\Users\\Aditya Bapat\\Desktop\\project\\HackThisFall-frontend\\contracts\\test1.sol",
  "compiler": {
    "name": "solc",
    "version": "0.8.17+commit.8df45f5f.Emscripten.clang"
  },
  "schemaVersion": "3.4.10",
  "updatedAt": "2023-02-01T18:46:46.625Z",
  "networkType": "ethereum",
  "devdoc": {
    "kind": "dev",
    "methods": {},
    "version": 1
  },
  "userdoc": {
    "kind": "user",
    "methods": {},
    "version": 1
  }
}